{
    "contractName": "SimpleAuction",
    "abi": [
        {
            "inputs": [
                {
                    "internalType": "uint256",
                    "name": "_biddingTime",
                    "type": "uint256"
                },
                {
                    "internalType": "uint256",
                    "name": "_fixedPrice",
                    "type": "uint256"
                },
                {
                    "internalType": "uint256",
                    "name": "_lowestPrice",
                    "type": "uint256"
                },
                {
                    "internalType": "bytes",
                    "name": "token",
                    "type": "bytes"
                }
            ],
            "stateMutability": "nonpayable",
            "type": "constructor"
        },
        {
            "anonymous": false,
            "inputs": [
                {
                    "indexed": false,
                    "internalType": "address",
                    "name": "winner",
                    "type": "address"
                },
                {
                    "indexed": false,
                    "internalType": "uint256",
                    "name": "amount",
                    "type": "uint256"
                }
            ],
            "name": "AuctionEnded",
            "type": "event"
        },
        {
            "anonymous": false,
            "inputs": [
                {
                    "indexed": false,
                    "internalType": "address",
                    "name": "bidder",
                    "type": "address"
                },
                {
                    "indexed": false,
                    "internalType": "uint256",
                    "name": "amount",
                    "type": "uint256"
                }
            ],
            "name": "HighestBidIncreased",
            "type": "event"
        },
        {
            "inputs": [],
            "name": "auctionDeal_Price",
            "outputs": [],
            "stateMutability": "nonpayable",
            "type": "function"
        },
        {
            "inputs": [],
            "name": "auctionDeal_Time",
            "outputs": [],
            "stateMutability": "nonpayable",
            "type": "function"
        },
        {
            "inputs": [],
            "name": "auctionEnd",
            "outputs": [
                {
                    "internalType": "uint256",
                    "name": "",
                    "type": "uint256"
                }
            ],
            "stateMutability": "view",
            "type": "function"
        },
        {
            "inputs": [],
            "name": "beneficiary",
            "outputs": [
                {
                    "internalType": "address payable",
                    "name": "",
                    "type": "address"
                }
            ],
            "stateMutability": "view",
            "type": "function"
        },
        {
            "inputs": [],
            "name": "bid",
            "outputs": [],
            "stateMutability": "payable",
            "type": "function"
        },
        {
            "inputs": [],
            "name": "changeLowestPrice",
            "outputs": [],
            "stateMutability": "payable",
            "type": "function"
        },
        {
            "inputs": [],
            "name": "checkMyPrice",
            "outputs": [
                {
                    "internalType": "uint256",
                    "name": "",
                    "type": "uint256"
                }
            ],
            "stateMutability": "nonpayable",
            "type": "function"
        },
        {
            "inputs": [],
            "name": "ended",
            "outputs": [
                {
                    "internalType": "bool",
                    "name": "",
                    "type": "bool"
                }
            ],
            "stateMutability": "view",
            "type": "function"
        },
        {
            "inputs": [],
            "name": "erc",
            "outputs": [
                {
                    "internalType": "contract TokenERC20",
                    "name": "",
                    "type": "address"
                }
            ],
            "stateMutability": "view",
            "type": "function"
        },
        {
            "inputs": [],
            "name": "fixedPrice",
            "outputs": [
                {
                    "internalType": "uint256",
                    "name": "",
                    "type": "uint256"
                }
            ],
            "stateMutability": "view",
            "type": "function"
        },
        {
            "inputs": [],
            "name": "highestBid",
            "outputs": [
                {
                    "internalType": "uint256",
                    "name": "",
                    "type": "uint256"
                }
            ],
            "stateMutability": "view",
            "type": "function"
        },
        {
            "inputs": [],
            "name": "highestBidder",
            "outputs": [
                {
                    "internalType": "address",
                    "name": "",
                    "type": "address"
                }
            ],
            "stateMutability": "view",
            "type": "function"
        },
        {
            "inputs": [],
            "name": "lowestPrice",
            "outputs": [
                {
                    "internalType": "uint256",
                    "name": "",
                    "type": "uint256"
                }
            ],
            "stateMutability": "view",
            "type": "function"
        },
        {
            "inputs": [],
            "name": "withdraw",
            "outputs": [
                {
                    "internalType": "bool",
                    "name": "",
                    "type": "bool"
                }
            ],
            "stateMutability": "nonpayable",
            "type": "function"
        }
    ],
    "bytecode": "608060405234801561001057600080fd5b506040516109ef3803806109ef83398101604081905261002f9161008f565b60048390556020810151600680546001600160a01b03929092166001600160a01b03199283161790556008805461ff00191690556005839055600383905560008054909116331790556100828442610178565b600155506101b292505050565b600080600080608085870312156100a4578384fd5b8451602080870151604088015160608901519397509095509350906001600160401b03808211156100d3578384fd5b818801915088601f8301126100e6578384fd5b8151818111156100f8576100f861019c565b604051601f8201601f19908116603f011681019083821181831017156101205761012061019c565b816040528281528b86848701011115610137578687fd5b8693505b82841015610158578484018601518185018701529285019261013b565b8284111561016857868684830101525b989b979a50959850505050505050565b6000821982111561019757634e487b7160e01b81526011600452602481fd5b500190565b634e487b7160e01b600052604160045260246000fd5b61082e806101c16000396000f3fe6080604052600436106100dd5760003560e01c806391f901571161007f578063afef8a9e11610059578063afef8a9e146101ff578063be29b05614610214578063d57bde791461022a578063ec851cb514610240576100dd565b806391f90157146101b7578063a6b87b52146101d7578063aa6ccbcf146101f7576100dd565b80632a24f46c116100bb5780632a24f46c1461013f57806338af3eed146101555780633ccfd60b1461018d5780635193c24d146101a2576100dd565b806312fa6feb146100e25780631998aeef146101115780631efba6c21461011b575b600080fd5b3480156100ee57600080fd5b506008546100fc9060ff1681565b60405190151581526020015b60405180910390f35b610119610255565b005b34801561012757600080fd5b5061013160045481565b604051908152602001610108565b34801561014b57600080fd5b5061013160015481565b34801561016157600080fd5b50600054610175906001600160a01b031681565b6040516001600160a01b039091168152602001610108565b34801561019957600080fd5b506100fc6103ed565b3480156101ae57600080fd5b506101196104d1565b3480156101c357600080fd5b50600254610175906001600160a01b031681565b3480156101e357600080fd5b50600654610175906001600160a01b031681565b610119610604565b34801561020b57600080fd5b506101316106f7565b34801561022057600080fd5b5061013160055481565b34801561023657600080fd5b5061013160035481565b34801561024c57600080fd5b50610119610731565b6001544211156102a55760405162461bcd60e51b815260206004820152601660248201527520bab1ba34b7b71030b63932b0b23c9032b73232b21760511b60448201526064015b60405180910390fd5b600354336000908152600760205260409020546102c290346107d4565b1161030f5760405162461bcd60e51b815260206004820152601e60248201527f546865726520616c7265616479206973206120686967686572206269642e0000604482015260640161029c565b6008805461ff00191661010017905560035415610359576003546002546001600160a01b0316600090815260076020526040812080549091906103539084906107d4565b90915550505b600280546001600160a01b0319163390811790915560009081526007602052604090205461038790346107d4565b6003553360008181526007602052604081208190557ff4757a49b326036464bec6fe419a4ae38c8a02ce3e68bf0809674f6aab8ad30091906103c990346107d4565b604080516001600160a01b03909316835260208301919091520160405180910390a1565b60085460009060ff1661043b5760405162461bcd60e51b815260206004820152601660248201527520bab1ba34b7b7103737ba103cb2ba1032b73232b21760511b604482015260640161029c565b3360009081526007602052604090205480156104c9573360008181526007602052604080822091909155600654905163a9059cbb60e01b81526004810192909252602482018390526001600160a01b03169063a9059cbb90604401600060405180830381600087803b1580156104b057600080fd5b505af11580156104c4573d6000803e3d6000fd5b505050505b600191505090565b60015442101561051c5760405162461bcd60e51b815260206004820152601660248201527520bab1ba34b7b7103737ba103cb2ba1032b73232b21760511b604482015260640161029c565b60085460ff161561053f5760405162461bcd60e51b815260040161029c90610791565b6008805460ff19166001179055600254600354604080516001600160a01b03909316835260208301919091527fdaec4582d5d9595688c8c98545fdd1c696d41c6aeaeb636737e84ed2f5c00eda910160405180910390a160065460005460035460405163a9059cbb60e01b81526001600160a01b039283166004820152602481019190915291169063a9059cbb90604401600060405180830381600087803b1580156105ea57600080fd5b505af11580156105fe573d6000803e3d6000fd5b50505050565b60085460ff16156106275760405162461bcd60e51b815260040161029c90610791565b600854610100900460ff161561067f5760405162461bcd60e51b815260206004820152601860248201527f546865726520697320736f6d65626f6479206269646465640000000000000000604482015260640161029c565b6000546001600160a01b031633146106ec5760405162461bcd60e51b815260206004820152602a60248201527f6f6e6c7920746865206f776e65722063616e206368616e676520746865206c6f6044820152697765737420707269636560b01b606482015260840161029c565b346003819055600555565b60085460009060ff161561071d5760405162461bcd60e51b815260040161029c90610791565b503360009081526007602052604090205490565b60085460ff16156107545760405162461bcd60e51b815260040161029c90610791565b600454600354101561053f5760405162461bcd60e51b815260040161029c906020808252600490820152631119585b60e21b604082015260600190565b60208082526023908201527f61756374696f6e456e642068617320616c7265616479206265656e2063616c6c60408201526232b21760e91b606082015260800190565b600082198211156107f357634e487b7160e01b81526011600452602481fd5b50019056fea264697066735822122048e0235162343593a1cb7e640b6f177461d7b06ca77f53f15b1f7aab0d32628364736f6c63430008030033",
    "sourcePath": "d:/代码/以太坊/contracts/deal.sol",
    "compiler": {
        "name": "solc",
        "version": "0.8.3+commit.8d00100c"
    },
    "functionHashes": {
        "auctionDeal_Price()": "ec851cb5",
        "auctionDeal_Time()": "5193c24d",
        "auctionEnd()": "2a24f46c",
        "beneficiary()": "38af3eed",
        "bid()": "1998aeef",
        "changeLowestPrice()": "aa6ccbcf",
        "checkMyPrice()": "afef8a9e",
        "ended()": "12fa6feb",
        "erc()": "a6b87b52",
        "fixedPrice()": "1efba6c2",
        "highestBid()": "d57bde79",
        "highestBidder()": "91f90157",
        "lowestPrice()": "be29b056",
        "withdraw()": "3ccfd60b"
    },
    "gasEstimates": {
        "creation": {
            "codeDepositCost": "418800",
            "executionCost": "infinite",
            "totalCost": "infinite"
        },
        "external": {
            "auctionDeal_Price()": "infinite",
            "auctionDeal_Time()": "infinite",
            "auctionEnd()": "1018",
            "beneficiary()": "1082",
            "bid()": "infinite",
            "changeLowestPrice()": "42704",
            "checkMyPrice()": "1931",
            "ended()": "1023",
            "erc()": "1082",
            "fixedPrice()": "1063",
            "highestBid()": "1061",
            "highestBidder()": "1060",
            "lowestPrice()": "1039",
            "withdraw()": "infinite"
        },
        "internal": {
            "bytesToAddress(bytes memory)": "infinite"
        }
    }
}