{
  "contractName": "SimpleAuction",
  "abi": [
    {
      "inputs": [
        {
          "internalType": "uint256",
          "name": "_biddingTime",
          "type": "uint256"
        },
        {
          "internalType": "uint256",
          "name": "_fixedPrice",
          "type": "uint256"
        },
        {
          "internalType": "uint256",
          "name": "_lowestPrice",
          "type": "uint256"
        },
        {
          "internalType": "contract TokenERC20",
          "name": "token",
          "type": "address"
        }
      ],
      "stateMutability": "nonpayable",
      "type": "constructor"
    },
    {
      "anonymous": false,
      "inputs": [
        {
          "indexed": false,
          "internalType": "address",
          "name": "winner",
          "type": "address"
        },
        {
          "indexed": false,
          "internalType": "uint256",
          "name": "amount",
          "type": "uint256"
        }
      ],
      "name": "AuctionEnded",
      "type": "event"
    },
    {
      "anonymous": false,
      "inputs": [
        {
          "indexed": false,
          "internalType": "address",
          "name": "bidder",
          "type": "address"
        },
        {
          "indexed": false,
          "internalType": "uint256",
          "name": "amount",
          "type": "uint256"
        }
      ],
      "name": "HighestBidIncreased",
      "type": "event"
    },
    {
      "inputs": [],
      "name": "auctionEnd",
      "outputs": [
        {
          "internalType": "uint256",
          "name": "",
          "type": "uint256"
        }
      ],
      "stateMutability": "view",
      "type": "function",
      "constant": true
    },
    {
      "inputs": [],
      "name": "beneficiary",
      "outputs": [
        {
          "internalType": "address payable",
          "name": "",
          "type": "address"
        }
      ],
      "stateMutability": "view",
      "type": "function",
      "constant": true
    },
    {
      "inputs": [],
      "name": "ended",
      "outputs": [
        {
          "internalType": "bool",
          "name": "",
          "type": "bool"
        }
      ],
      "stateMutability": "view",
      "type": "function",
      "constant": true
    },
    {
      "inputs": [],
      "name": "erc",
      "outputs": [
        {
          "internalType": "contract TokenERC20",
          "name": "",
          "type": "address"
        }
      ],
      "stateMutability": "view",
      "type": "function",
      "constant": true
    },
    {
      "inputs": [],
      "name": "fixedPrice",
      "outputs": [
        {
          "internalType": "uint256",
          "name": "",
          "type": "uint256"
        }
      ],
      "stateMutability": "view",
      "type": "function",
      "constant": true
    },
    {
      "inputs": [],
      "name": "highestBid",
      "outputs": [
        {
          "internalType": "uint256",
          "name": "",
          "type": "uint256"
        }
      ],
      "stateMutability": "view",
      "type": "function",
      "constant": true
    },
    {
      "inputs": [],
      "name": "highestBidder",
      "outputs": [
        {
          "internalType": "address",
          "name": "",
          "type": "address"
        }
      ],
      "stateMutability": "view",
      "type": "function",
      "constant": true
    },
    {
      "inputs": [],
      "name": "lowestPrice",
      "outputs": [
        {
          "internalType": "uint256",
          "name": "",
          "type": "uint256"
        }
      ],
      "stateMutability": "view",
      "type": "function",
      "constant": true
    },
    {
      "inputs": [],
      "name": "bid",
      "outputs": [],
      "stateMutability": "payable",
      "type": "function",
      "payable": true
    },
    {
      "inputs": [],
      "name": "withdraw",
      "outputs": [
        {
          "internalType": "bool",
          "name": "",
          "type": "bool"
        }
      ],
      "stateMutability": "nonpayable",
      "type": "function"
    },
    {
      "inputs": [],
      "name": "auctionDeal_Time",
      "outputs": [],
      "stateMutability": "nonpayable",
      "type": "function"
    },
    {
      "inputs": [],
      "name": "auctionDeal_Price",
      "outputs": [],
      "stateMutability": "nonpayable",
      "type": "function"
    },
    {
      "inputs": [],
      "name": "checkMyPrice",
      "outputs": [
        {
          "internalType": "uint256",
          "name": "",
          "type": "uint256"
        }
      ],
      "stateMutability": "nonpayable",
      "type": "function"
    },
    {
      "inputs": [],
      "name": "changeLowestPrice",
      "outputs": [],
      "stateMutability": "payable",
      "type": "function",
      "payable": true
    }
  ],
  "bytecode": "0x608060405234801561001057600080fd5b5060405161112a38038061112a8339818101604052608081101561003357600080fd5b81019080805190602001909291908051906020019092919080519060200190929190805190602001909291905050508260048190555080600660006101000a81548173ffffffffffffffffffffffffffffffffffffffff021916908373ffffffffffffffffffffffffffffffffffffffff1602179055506000600860016101000a81548160ff0219169083151502179055508160058190555081600381905550336000806101000a81548173ffffffffffffffffffffffffffffffffffffffff021916908373ffffffffffffffffffffffffffffffffffffffff16021790555083420160018190555050505050610ffb8061012f6000396000f3fe6080604052600436106100dd5760003560e01c806391f901571161007f578063afef8a9e11610059578063afef8a9e14610280578063be29b056146102ab578063d57bde79146102d6578063ec851cb514610301576100dd565b806391f90157146101f4578063a6b87b5214610235578063aa6ccbcf14610276576100dd565b80632a24f46c116100bb5780632a24f46c1461014457806338af3eed1461016f5780633ccfd60b146101b05780635193c24d146101dd576100dd565b806312fa6feb146100e25780631998aeef1461010f5780631efba6c214610119575b600080fd5b3480156100ee57600080fd5b506100f7610318565b60405180821515815260200191505060405180910390f35b61011761032b565b005b34801561012557600080fd5b5061012e610658565b6040518082815260200191505060405180910390f35b34801561015057600080fd5b5061015961065e565b6040518082815260200191505060405180910390f35b34801561017b57600080fd5b50610184610664565b604051808273ffffffffffffffffffffffffffffffffffffffff16815260200191505060405180910390f35b3480156101bc57600080fd5b506101c5610688565b60405180821515815260200191505060405180910390f35b3480156101e957600080fd5b506101f2610852565b005b34801561020057600080fd5b50610209610a93565b604051808273ffffffffffffffffffffffffffffffffffffffff16815260200191505060405180910390f35b34801561024157600080fd5b5061024a610ab9565b604051808273ffffffffffffffffffffffffffffffffffffffff16815260200191505060405180910390f35b61027e610adf565b005b34801561028c57600080fd5b50610295610c7c565b6040518082815260200191505060405180910390f35b3480156102b757600080fd5b506102c0610d29565b6040518082815260200191505060405180910390f35b3480156102e257600080fd5b506102eb610d2f565b6040518082815260200191505060405180910390f35b34801561030d57600080fd5b50610316610d35565b005b600860009054906101000a900460ff1681565b6001544211156103a3576040517f08c379a00000000000000000000000000000000000000000000000000000000081526004018080602001828103825260168152602001807f41756374696f6e20616c726561647920656e6465642e0000000000000000000081525060200191505060405180910390fd5b600354600760003373ffffffffffffffffffffffffffffffffffffffff1673ffffffffffffffffffffffffffffffffffffffff1681526020019081526020016000205434011161045b576040517f08c379a000000000000000000000000000000000000000000000000000000000815260040180806020018281038252601e8152602001807f546865726520616c7265616479206973206120686967686572206269642e000081525060200191505060405180910390fd5b6001600860016101000a81548160ff0219169083151502179055506000600354146104f25760035460076000600260009054906101000a900473ffffffffffffffffffffffffffffffffffffffff1673ffffffffffffffffffffffffffffffffffffffff1673ffffffffffffffffffffffffffffffffffffffff168152602001908152602001600020600082825401925050819055505b33600260006101000a81548173ffffffffffffffffffffffffffffffffffffffff021916908373ffffffffffffffffffffffffffffffffffffffff160217905550600760003373ffffffffffffffffffffffffffffffffffffffff1673ffffffffffffffffffffffffffffffffffffffff1681526020019081526020016000205434016003819055506000600760003373ffffffffffffffffffffffffffffffffffffffff1673ffffffffffffffffffffffffffffffffffffffff168152602001908152602001600020819055507ff4757a49b326036464bec6fe419a4ae38c8a02ce3e68bf0809674f6aab8ad30033600760003373ffffffffffffffffffffffffffffffffffffffff1673ffffffffffffffffffffffffffffffffffffffff168152602001908152602001600020543401604051808373ffffffffffffffffffffffffffffffffffffffff1681526020018281526020019250505060405180910390a1565b60045481565b60015481565b60008054906101000a900473ffffffffffffffffffffffffffffffffffffffff1681565b6000600860009054906101000a900460ff1661070c576040517f08c379a00000000000000000000000000000000000000000000000000000000081526004018080602001828103825260168152602001807f41756374696f6e206e6f742079657420656e6465642e0000000000000000000081525060200191505060405180910390fd5b6000600760003373ffffffffffffffffffffffffffffffffffffffff1673ffffffffffffffffffffffffffffffffffffffff168152602001908152602001600020549050600081111561084a576000600760003373ffffffffffffffffffffffffffffffffffffffff1673ffffffffffffffffffffffffffffffffffffffff16815260200190815260200160002081905550600660009054906101000a900473ffffffffffffffffffffffffffffffffffffffff1673ffffffffffffffffffffffffffffffffffffffff1663a9059cbb33836040518363ffffffff1660e01b8152600401808373ffffffffffffffffffffffffffffffffffffffff16815260200182815260200192505050600060405180830381600087803b15801561083157600080fd5b505af1158015610845573d6000803e3d6000fd5b505050505b600191505090565b6001544210156108ca576040517f08c379a00000000000000000000000000000000000000000000000000000000081526004018080602001828103825260168152602001807f41756374696f6e206e6f742079657420656e6465642e0000000000000000000081525060200191505060405180910390fd5b600860009054906101000a900460ff1615610930576040517f08c379a0000000000000000000000000000000000000000000000000000000008152600401808060200182810382526023815260200180610fa36023913960400191505060405180910390fd5b6001600860006101000a81548160ff0219169083151502179055507fdaec4582d5d9595688c8c98545fdd1c696d41c6aeaeb636737e84ed2f5c00eda600260009054906101000a900473ffffffffffffffffffffffffffffffffffffffff16600354604051808373ffffffffffffffffffffffffffffffffffffffff1681526020018281526020019250505060405180910390a1600660009054906101000a900473ffffffffffffffffffffffffffffffffffffffff1673ffffffffffffffffffffffffffffffffffffffff1663a9059cbb60008054906101000a900473ffffffffffffffffffffffffffffffffffffffff166003546040518363ffffffff1660e01b8152600401808373ffffffffffffffffffffffffffffffffffffffff16815260200182815260200192505050600060405180830381600087803b158015610a7957600080fd5b505af1158015610a8d573d6000803e3d6000fd5b50505050565b600260009054906101000a900473ffffffffffffffffffffffffffffffffffffffff1681565b600660009054906101000a900473ffffffffffffffffffffffffffffffffffffffff1681565b600860009054906101000a900460ff1615610b45576040517f08c379a0000000000000000000000000000000000000000000000000000000008152600401808060200182810382526023815260200180610fa36023913960400191505060405180910390fd5b600860019054906101000a900460ff1615610bc8576040517f08c379a00000000000000000000000000000000000000000000000000000000081526004018080602001828103825260188152602001807f546865726520697320736f6d65626f647920626964646564000000000000000081525060200191505060405180910390fd5b60008054906101000a900473ffffffffffffffffffffffffffffffffffffffff1673ffffffffffffffffffffffffffffffffffffffff163373ffffffffffffffffffffffffffffffffffffffff1614610c6c576040517f08c379a000000000000000000000000000000000000000000000000000000000815260040180806020018281038252602a815260200180610f79602a913960400191505060405180910390fd5b3460038190555034600581905550565b6000600860009054906101000a900460ff1615610ce4576040517f08c379a0000000000000000000000000000000000000000000000000000000008152600401808060200182810382526023815260200180610fa36023913960400191505060405180910390fd5b600760003373ffffffffffffffffffffffffffffffffffffffff1673ffffffffffffffffffffffffffffffffffffffff16815260200190815260200160002054905090565b60055481565b60035481565b600860009054906101000a900460ff1615610d9b576040517f08c379a0000000000000000000000000000000000000000000000000000000008152600401808060200182810382526023815260200180610fa36023913960400191505060405180910390fd5b6004546003541015610e15576040517f08c379a00000000000000000000000000000000000000000000000000000000081526004018080602001828103825260048152602001807f4465616c0000000000000000000000000000000000000000000000000000000081525060200191505060405180910390fd5b6001600860006101000a81548160ff0219169083151502179055507fdaec4582d5d9595688c8c98545fdd1c696d41c6aeaeb636737e84ed2f5c00eda600260009054906101000a900473ffffffffffffffffffffffffffffffffffffffff16600354604051808373ffffffffffffffffffffffffffffffffffffffff1681526020018281526020019250505060405180910390a1600660009054906101000a900473ffffffffffffffffffffffffffffffffffffffff1673ffffffffffffffffffffffffffffffffffffffff1663a9059cbb60008054906101000a900473ffffffffffffffffffffffffffffffffffffffff166003546040518363ffffffff1660e01b8152600401808373ffffffffffffffffffffffffffffffffffffffff16815260200182815260200192505050600060405180830381600087803b158015610f5e57600080fd5b505af1158015610f72573d6000803e3d6000fd5b5050505056fe6f6e6c7920746865206f776e65722063616e206368616e676520746865206c6f7765737420707269636561756374696f6e456e642068617320616c7265616479206265656e2063616c6c65642ea2646970667358221220980e217c5d9c042012f5a1a1b7b181a45cb805464ec6cbb38b7955d51d581dee64736f6c63430007060033",
  "immutableReferences": {},
  "source": "// SPDX-License-Identifier: MIT\r\npragma solidity >=0.7.0 <0.8.0;\r\n\r\nimport \"./erc20.sol\";\r\n\r\ncontract SimpleAuction {\r\n    // 拍卖的参数。\r\n    address payable public beneficiary;\r\n    uint public auctionEnd;\r\n    address public highestBidder;\r\n    uint public highestBid;\r\n    uint public fixedPrice;\r\n    uint public lowestPrice;\r\n    TokenERC20 public erc;\r\n\r\n    //取出列表\r\n    mapping(address => uint) pendingReturns;\r\n    //mapping(address => uint) historyPrices;\r\n    bool public ended;\r\n    bool bidded;\r\n    \r\n\r\n    event HighestBidIncreased(address bidder, uint amount);\r\n    event AuctionEnded(address winner, uint amount);\r\n\r\n    constructor(\r\n        uint _biddingTime,\r\n        uint _fixedPrice,\r\n        uint _lowestPrice,\r\n        TokenERC20 token\r\n    ) public {\r\n        fixedPrice=_fixedPrice;\r\n        erc=token;\r\n        bidded=false;\r\n        lowestPrice=_lowestPrice;\r\n        highestBid=_lowestPrice;\r\n        beneficiary = payable(msg.sender);\r\n        auctionEnd = block.timestamp + _biddingTime;\r\n    }\r\n    function bid() public payable {\r\n        require(\r\n            block.timestamp <= auctionEnd,\r\n            \"Auction already ended.\"\r\n        );//已结束\r\n        require(\r\n            msg.value+pendingReturns[msg.sender] > highestBid,\r\n            \"There already is a higher bid.\"\r\n        );//出价太低\r\n        bidded=true;\r\n        if (highestBid != 0) {\r\n            pendingReturns[highestBidder] += highestBid;\r\n        }\r\n        \r\n        highestBidder = msg.sender;\r\n        highestBid = msg.value + pendingReturns[msg.sender];\r\n        pendingReturns[msg.sender]=0;\r\n        emit HighestBidIncreased(msg.sender, msg.value + pendingReturns[msg.sender]);\r\n    }\r\n\r\n    /// 取回出价（当该出价已被超越）\r\n    function withdraw() public returns (bool) {\r\n        require(ended,\"Auction not yet ended.\");\r\n        uint amount = pendingReturns[msg.sender];\r\n        if (amount > 0) {\r\n            //取出\r\n            pendingReturns[msg.sender] = 0;\r\n           //payable(msg.sender).transfer(amount);\r\n           //erc._transfer(beneficiary,msg.sender,amount);\r\n           erc.transfer(msg.sender, amount);\r\n        }\r\n        return true;\r\n    }\r\n\r\n    function auctionDeal_Time() public {\r\n        \r\n        require(block.timestamp >= auctionEnd, \"Auction not yet ended.\");\r\n        require(!ended, \"auctionEnd has already been called.\");\r\n\r\n        ended = true;\r\n        emit AuctionEnded(highestBidder, highestBid);\r\n\r\n        //beneficiary.transfer(highestBid);\r\n        erc.transfer(beneficiary, highestBid);\r\n    }\r\n    \r\n    function auctionDeal_Price() public {\r\n        \r\n        require(!ended, \"auctionEnd has already been called.\");\r\n        require(highestBid>=fixedPrice,\"Deal\");\r\n\r\n        ended = true;\r\n        emit AuctionEnded(highestBidder, highestBid);\r\n\r\n        //beneficiary.transfer(highestBid);\r\n        erc.transfer(beneficiary, highestBid);\r\n    }\r\n    \r\n    function checkMyPrice() public returns (uint){\r\n        require(!ended, \"auctionEnd has already been called.\");\r\n        return pendingReturns[msg.sender];\r\n    }\r\n    \r\n    function changeLowestPrice() public payable{\r\n        require(!ended, \"auctionEnd has already been called.\");\r\n        require(!bidded, \"There is somebody bidded\");\r\n        require(msg.sender==beneficiary,\"only the owner can change the lowest price\");\r\n        \r\n        highestBid=msg.value;\r\n        lowestPrice=msg.value;\r\n    }\r\nfunction bytesToAddress(bytes memory bys) private pure returns (address addr) {\r\n    assembly {\r\n        addr := mload(add(bys, 32))\r\n    } \r\n}\r\n}",
  "sourcePath": "D:/代码/以太坊/contracts/deal.sol",
  "compiler": {
    "name": "solc",
    "version": "0.7.6+commit.7338295f.Emscripten.clang"
  },
  "schemaVersion": "3.3.4",
  "updatedAt": "2021-04-03T04:37:35.831Z",
  "networkType": "ethereum",
  "devdoc": {
    "kind": "dev",
    "methods": {},
    "version": 1
  },
  "userdoc": {
    "kind": "user",
    "methods": {
      "withdraw()": {
        "notice": "取回出价（当该出价已被超越）"
      }
    },
    "version": 1
  }
}